{
  "_format": "hh-sol-artifact-1",
  "contractName": "Feeer",
  "sourceName": "contracts/feeer.sol",
  "abi": [
    {
      "inputs": [],
      "stateMutability": "nonpayable",
      "type": "constructor"
    },
    {
      "anonymous": false,
      "inputs": [
        {
          "indexed": true,
          "internalType": "address",
          "name": "previousOwner",
          "type": "address"
        },
        {
          "indexed": true,
          "internalType": "address",
          "name": "newOwner",
          "type": "address"
        }
      ],
      "name": "OwnershipTransferred",
      "type": "event"
    },
    {
      "anonymous": false,
      "inputs": [
        {
          "indexed": false,
          "internalType": "address",
          "name": "_user",
          "type": "address"
        },
        {
          "indexed": false,
          "internalType": "uint256",
          "name": "wmaticAmount",
          "type": "uint256"
        },
        {
          "indexed": false,
          "internalType": "uint256",
          "name": "gotchiAmount",
          "type": "uint256"
        }
      ],
      "name": "Pay",
      "type": "event"
    },
    {
      "anonymous": false,
      "inputs": [
        {
          "indexed": false,
          "internalType": "address",
          "name": "_user",
          "type": "address"
        },
        {
          "indexed": false,
          "internalType": "uint256",
          "name": "wmaticAmount",
          "type": "uint256"
        },
        {
          "indexed": false,
          "internalType": "uint256",
          "name": "gotchiAmount",
          "type": "uint256"
        }
      ],
      "name": "Regulate",
      "type": "event"
    },
    {
      "inputs": [
        {
          "internalType": "address[]",
          "name": "_users",
          "type": "address[]"
        },
        {
          "internalType": "uint256[]",
          "name": "_amountGotchis",
          "type": "uint256[]"
        }
      ],
      "name": "batchPay",
      "outputs": [],
      "stateMutability": "nonpayable",
      "type": "function"
    },
    {
      "inputs": [
        {
          "internalType": "address[]",
          "name": "_users",
          "type": "address[]"
        },
        {
          "internalType": "uint256[]",
          "name": "_amountGotchis",
          "type": "uint256[]"
        }
      ],
      "name": "batchRegulate",
      "outputs": [],
      "stateMutability": "nonpayable",
      "type": "function"
    },
    {
      "inputs": [
        {
          "internalType": "address[]",
          "name": "_users",
          "type": "address[]"
        },
        {
          "internalType": "uint256[]",
          "name": "_amountGotchis",
          "type": "uint256[]"
        }
      ],
      "name": "batchRemoveUsers",
      "outputs": [],
      "stateMutability": "nonpayable",
      "type": "function"
    },
    {
      "inputs": [
        {
          "internalType": "address[]",
          "name": "_users",
          "type": "address[]"
        }
      ],
      "name": "getBatchIsTimeToPay",
      "outputs": [
        {
          "internalType": "bool[]",
          "name": "status_",
          "type": "bool[]"
        }
      ],
      "stateMutability": "view",
      "type": "function"
    },
    {
      "inputs": [
        {
          "internalType": "address[]",
          "name": "_users",
          "type": "address[]"
        },
        {
          "internalType": "uint256[]",
          "name": "_amountGotchis",
          "type": "uint256[]"
        }
      ],
      "name": "getBatchNeedRemoveUser",
      "outputs": [
        {
          "internalType": "bool[]",
          "name": "status_",
          "type": "bool[]"
        }
      ],
      "stateMutability": "view",
      "type": "function"
    },
    {
      "inputs": [
        {
          "internalType": "address[]",
          "name": "_users",
          "type": "address[]"
        },
        {
          "internalType": "uint256[]",
          "name": "_amountGotchis",
          "type": "uint256[]"
        }
      ],
      "name": "getBatchWmaticRegPerUser",
      "outputs": [
        {
          "internalType": "uint256[]",
          "name": "status_",
          "type": "uint256[]"
        }
      ],
      "stateMutability": "view",
      "type": "function"
    },
    {
      "inputs": [
        {
          "internalType": "address",
          "name": "_address",
          "type": "address"
        }
      ],
      "name": "getIsApproved",
      "outputs": [
        {
          "internalType": "bool",
          "name": "",
          "type": "bool"
        }
      ],
      "stateMutability": "view",
      "type": "function"
    },
    {
      "inputs": [
        {
          "internalType": "address",
          "name": "_user",
          "type": "address"
        }
      ],
      "name": "getIsSignedUp",
      "outputs": [
        {
          "internalType": "bool",
          "name": "",
          "type": "bool"
        }
      ],
      "stateMutability": "view",
      "type": "function"
    },
    {
      "inputs": [
        {
          "internalType": "address",
          "name": "_user",
          "type": "address"
        }
      ],
      "name": "getIsTimeToPay",
      "outputs": [
        {
          "internalType": "bool",
          "name": "",
          "type": "bool"
        }
      ],
      "stateMutability": "view",
      "type": "function"
    },
    {
      "inputs": [
        {
          "internalType": "address",
          "name": "_user",
          "type": "address"
        },
        {
          "internalType": "uint256",
          "name": "_amountGotchis",
          "type": "uint256"
        }
      ],
      "name": "getNeedRemoveUser",
      "outputs": [
        {
          "internalType": "bool",
          "name": "",
          "type": "bool"
        }
      ],
      "stateMutability": "view",
      "type": "function"
    },
    {
      "inputs": [
        {
          "internalType": "address",
          "name": "_user",
          "type": "address"
        }
      ],
      "name": "getUserLastFeeTimestamp",
      "outputs": [
        {
          "internalType": "uint256",
          "name": "",
          "type": "uint256"
        }
      ],
      "stateMutability": "view",
      "type": "function"
    },
    {
      "inputs": [
        {
          "internalType": "address",
          "name": "_user",
          "type": "address"
        }
      ],
      "name": "getUserToGotchiAmount",
      "outputs": [
        {
          "internalType": "uint256",
          "name": "",
          "type": "uint256"
        }
      ],
      "stateMutability": "view",
      "type": "function"
    },
    {
      "inputs": [
        {
          "internalType": "address",
          "name": "_user",
          "type": "address"
        }
      ],
      "name": "getUserToWmaticPaid",
      "outputs": [
        {
          "internalType": "uint256",
          "name": "",
          "type": "uint256"
        }
      ],
      "stateMutability": "view",
      "type": "function"
    },
    {
      "inputs": [],
      "name": "getUsers",
      "outputs": [
        {
          "internalType": "address[]",
          "name": "",
          "type": "address[]"
        }
      ],
      "stateMutability": "view",
      "type": "function"
    },
    {
      "inputs": [],
      "name": "getUsersCount",
      "outputs": [
        {
          "internalType": "uint256",
          "name": "",
          "type": "uint256"
        }
      ],
      "stateMutability": "view",
      "type": "function"
    },
    {
      "inputs": [
        {
          "internalType": "uint256",
          "name": "_pointer",
          "type": "uint256"
        },
        {
          "internalType": "uint256",
          "name": "_amount",
          "type": "uint256"
        }
      ],
      "name": "getUsersIndexed",
      "outputs": [
        {
          "internalType": "address[]",
          "name": "",
          "type": "address[]"
        }
      ],
      "stateMutability": "view",
      "type": "function"
    },
    {
      "inputs": [
        {
          "internalType": "address",
          "name": "_user",
          "type": "address"
        }
      ],
      "name": "getUsersToIndex",
      "outputs": [
        {
          "internalType": "uint256",
          "name": "",
          "type": "uint256"
        }
      ],
      "stateMutability": "view",
      "type": "function"
    },
    {
      "inputs": [
        {
          "internalType": "uint256",
          "name": "_amountGochis",
          "type": "uint256"
        }
      ],
      "name": "getWmaticPayPerGotchis",
      "outputs": [
        {
          "internalType": "uint256",
          "name": "",
          "type": "uint256"
        }
      ],
      "stateMutability": "view",
      "type": "function"
    },
    {
      "inputs": [
        {
          "internalType": "address",
          "name": "_user",
          "type": "address"
        },
        {
          "internalType": "uint256",
          "name": "_amountGotchis",
          "type": "uint256"
        }
      ],
      "name": "getWmaticRegPerUser",
      "outputs": [
        {
          "internalType": "uint256",
          "name": "",
          "type": "uint256"
        }
      ],
      "stateMutability": "view",
      "type": "function"
    },
    {
      "inputs": [
        {
          "internalType": "address",
          "name": "_user",
          "type": "address"
        }
      ],
      "name": "hasApprovedGotchiInteraction",
      "outputs": [
        {
          "internalType": "bool",
          "name": "",
          "type": "bool"
        }
      ],
      "stateMutability": "view",
      "type": "function"
    },
    {
      "inputs": [],
      "name": "leave",
      "outputs": [],
      "stateMutability": "nonpayable",
      "type": "function"
    },
    {
      "inputs": [],
      "name": "owner",
      "outputs": [
        {
          "internalType": "address",
          "name": "",
          "type": "address"
        }
      ],
      "stateMutability": "view",
      "type": "function"
    },
    {
      "inputs": [
        {
          "internalType": "address",
          "name": "_user",
          "type": "address"
        },
        {
          "internalType": "uint256",
          "name": "_amountGotchis",
          "type": "uint256"
        }
      ],
      "name": "pay",
      "outputs": [],
      "stateMutability": "nonpayable",
      "type": "function"
    },
    {
      "inputs": [
        {
          "internalType": "address",
          "name": "_user",
          "type": "address"
        },
        {
          "internalType": "uint256",
          "name": "_amountGotchis",
          "type": "uint256"
        }
      ],
      "name": "regulate",
      "outputs": [],
      "stateMutability": "nonpayable",
      "type": "function"
    },
    {
      "inputs": [
        {
          "internalType": "address",
          "name": "_user",
          "type": "address"
        },
        {
          "internalType": "uint256",
          "name": "_amountGotchis",
          "type": "uint256"
        }
      ],
      "name": "removeUser",
      "outputs": [],
      "stateMutability": "nonpayable",
      "type": "function"
    },
    {
      "inputs": [],
      "name": "renounceOwnership",
      "outputs": [],
      "stateMutability": "nonpayable",
      "type": "function"
    },
    {
      "inputs": [
        {
          "internalType": "uint256",
          "name": "amountGotchis",
          "type": "uint256"
        }
      ],
      "name": "signUp",
      "outputs": [],
      "stateMutability": "nonpayable",
      "type": "function"
    },
    {
      "inputs": [
        {
          "internalType": "address",
          "name": "newOwner",
          "type": "address"
        }
      ],
      "name": "transferOwnership",
      "outputs": [],
      "stateMutability": "nonpayable",
      "type": "function"
    },
    {
      "inputs": [
        {
          "internalType": "uint256",
          "name": "_amount",
          "type": "uint256"
        }
      ],
      "name": "updateGotchisPerMatic",
      "outputs": [],
      "stateMutability": "nonpayable",
      "type": "function"
    },
    {
      "inputs": [
        {
          "internalType": "address",
          "name": "_address",
          "type": "address"
        },
        {
          "internalType": "bool",
          "name": "_status",
          "type": "bool"
        }
      ],
      "name": "updateIsApproved",
      "outputs": [],
      "stateMutability": "nonpayable",
      "type": "function"
    },
    {
      "inputs": [
        {
          "internalType": "uint256",
          "name": "_amount",
          "type": "uint256"
        }
      ],
      "name": "updateMinProRata",
      "outputs": [],
      "stateMutability": "nonpayable",
      "type": "function"
    }
  ],
  "bytecode": "0x6080604052600460015560096002553480156200001b57600080fd5b506200003c620000306200006760201b60201c565b6200006f60201b60201c565b620000617386935f11c86623dec8a25696e1c19a8659cbf95d6200013360201b60201c565b620002ea565b600033905090565b60008060009054906101000a900473ffffffffffffffffffffffffffffffffffffffff169050816000806101000a81548173ffffffffffffffffffffffffffffffffffffffff021916908373ffffffffffffffffffffffffffffffffffffffff1602179055508173ffffffffffffffffffffffffffffffffffffffff168173ffffffffffffffffffffffffffffffffffffffff167f8be0079c531659141344cd1fd0a4f28419497f9722a3daafe3b4186f6b6457e060405160405180910390a35050565b6000600460008373ffffffffffffffffffffffffffffffffffffffff1673ffffffffffffffffffffffffffffffffffffffff1681526020019081526020016000205414620001b8576040517f08c379a0000000000000000000000000000000000000000000000000000000008152600401620001af90620002c8565b60405180910390fd5b600380549050600460008373ffffffffffffffffffffffffffffffffffffffff1673ffffffffffffffffffffffffffffffffffffffff168152602001908152602001600020819055506003819080600181540180825580915050600190039060005260206000200160009091909190916101000a81548173ffffffffffffffffffffffffffffffffffffffff021916908373ffffffffffffffffffffffffffffffffffffffff16021790555050565b600082825260208201905092915050565b7f46656565723a207573657220616c726561647920616464656400000000000000600082015250565b6000620002b060198362000267565b9150620002bd8262000278565b602082019050919050565b60006020820190508181036000830152620002e381620002a1565b9050919050565b61384f80620002fa6000396000f3fe608060405234801561001057600080fd5b50600436106101e45760003560e01c806393d3f7741161010f578063e3e9a445116100a2578063ef60ebcb11610071578063ef60ebcb146105c3578063f24c4690146105f3578063f2fde38b1461060f578063f4f85d961461062b576101e4565b8063e3e9a44514610517578063e4c6c2d414610547578063e7598dd814610577578063eb844df1146105a7576101e4565b8063b72c71ac116100de578063b72c71ac146104a5578063c4076876146104d5578063d5af5f2d146104f1578063d66d9e191461050d576101e4565b806393d3f7741461040b578063944bc58814610427578063a4a1e26314610457578063b30ed70514610475576101e4565b806356ca065f11610187578063867e5bc611610156578063867e5bc6146103715780638da5cb5b146103a15780638f431428146103bf5780638fb82ae8146103db576101e4565b806356ca065f146102ff578063580e65a01461031b5780635b74e21c1461034b578063715018a614610367576101e4565b80631fc645c7116101c35780631fc645c7146102675780634ae29bb3146102835780634c73d125146102b357806353f534bc146102cf576101e4565b8062ce8e3e146101e95780630bd661631461020757806315f3201014610237575b600080fd5b6101f161065b565b6040516101fe9190612684565b60405180910390f35b610221600480360381019061021c91906126e6565b6106e9565b60405161022e9190612722565b60405180910390f35b610251600480360381019061024c9190612769565b610736565b60405161025e91906127b1565b60405180910390f35b610281600480360381019061027c91906126e6565b61078c565b005b61029d60048036038101906102989190612769565b6108af565b6040516102aa9190612722565b60405180910390f35b6102cd60048036038101906102c89190612887565b6108f8565b005b6102e960048036038101906102e49190612908565b610a4c565b6040516102f69190612722565b60405180910390f35b610319600480360381019061031491906126e6565b610ba0565b005b61033560048036038101906103309190612908565b610bb2565b60405161034291906127b1565b60405180910390f35b61036560048036038101906103609190612887565b610cd7565b005b61036f610e2b565b005b61038b60048036038101906103869190612769565b610e3f565b6040516103989190612722565b60405180910390f35b6103a9610e88565b6040516103b69190612957565b60405180910390f35b6103d960048036038101906103d4919061299e565b610eb1565b005b6103f560048036038101906103f09190612769565b610f14565b6040516104029190612722565b60405180910390f35b61042560048036038101906104209190612908565b610f5d565b005b610441600480360381019061043c9190612769565b6110c8565b60405161044e91906127b1565b60405180910390f35b61045f611175565b60405161046c9190612722565b60405180910390f35b61048f600480360381019061048a91906129de565b61118e565b60405161049c9190612ae9565b60405180910390f35b6104bf60048036038101906104ba9190612769565b61125c565b6040516104cc91906127b1565b60405180910390f35b6104ef60048036038101906104ea9190612908565b6112ba565b005b61050b60048036038101906105069190612887565b6113a3565b005b6105156114f7565b005b610531600480360381019061052c9190612887565b611584565b60405161053e9190612bc9565b60405180910390f35b610561600480360381019061055c9190612769565b6116b3565b60405161056e91906127b1565b60405180910390f35b610591600480360381019061058c9190612769565b6116fe565b60405161059e9190612722565b60405180910390f35b6105c160048036038101906105bc91906126e6565b611747565b005b6105dd60048036038101906105d89190612887565b611759565b6040516105ea9190612ae9565b60405180910390f35b61060d60048036038101906106089190612908565b61188e565b005b61062960048036038101906106249190612769565b611b77565b005b61064560048036038101906106409190612beb565b611bfa565b6040516106529190612684565b60405180910390f35b606060038054806020026020016040519081016040528092919081815260200182805480156106df57602002820191906000526020600020905b8160009054906101000a900473ffffffffffffffffffffffffffffffffffffffff1673ffffffffffffffffffffffffffffffffffffffff1681526020019060010190808311610695575b5050505050905090565b60008060015483116106fe576001905061071a565b600180548461070d9190612c89565b6107179190612cba565b90505b670de0b6b3a76400008161072e9190612cee565b915050919050565b6000600860008373ffffffffffffffffffffffffffffffffffffffff1673ffffffffffffffffffffffffffffffffffffffff16815260200190815260200160002060009054906101000a900460ff169050919050565b6000600460003373ffffffffffffffffffffffffffffffffffffffff1673ffffffffffffffffffffffffffffffffffffffff168152602001908152602001600020541461080e576040517f08c379a000000000000000000000000000000000000000000000000000000000815260040161080590612da5565b60405180910390fd5b60008111610851576040517f08c379a000000000000000000000000000000000000000000000000000000000815260040161084890612e11565b60405180910390fd5b61085a336110c8565b610899576040517f08c379a000000000000000000000000000000000000000000000000000000000815260040161089090612ea3565b60405180910390fd5b6108a33382611d22565b6108ac33612089565b50565b6000600660008373ffffffffffffffffffffffffffffffffffffffff1673ffffffffffffffffffffffffffffffffffffffff168152602001908152602001600020549050919050565b600860003373ffffffffffffffffffffffffffffffffffffffff1673ffffffffffffffffffffffffffffffffffffffff16815260200190815260200160002060009054906101000a900460ff168061098257503373ffffffffffffffffffffffffffffffffffffffff1661096a610e88565b73ffffffffffffffffffffffffffffffffffffffff16145b61098b57600080fd5b60008484905090508282905081146109d8576040517f08c379a00000000000000000000000000000000000000000000000000000000081526004016109cf90612f0f565b60405180910390fd5b60005b81811015610a445760008686838181106109f8576109f7612f2f565b5b9050602002016020810190610a0d9190612769565b90506000858584818110610a2457610a23612f2f565b5b905060200201359050610a3782826112ba565b82600101925050506109db565b505050505050565b600080600560008573ffffffffffffffffffffffffffffffffffffffff1673ffffffffffffffffffffffffffffffffffffffff1681526020019081526020016000205490506000620151808242610aa39190612f5e565b610aad9190612c89565b9050601e811115610ac357600092505050610b9a565b6000601e82601e610ad49190612f5e565b6064610ae09190612cee565b610aea9190612c89565b9050600254811015610b025760009350505050610b9a565b6000600660008873ffffffffffffffffffffffffffffffffffffffff1673ffffffffffffffffffffffffffffffffffffffff1681526020019081526020016000205490506000610b51876106e9565b905081811115610b9057600060648383610b6b9190612f5e565b85610b769190612cee565b610b809190612c89565b9050809650505050505050610b9a565b6000955050505050505b92915050565b610ba86121ba565b8060028190555050565b6000610bbd836116b3565b610bca5760009050610cd1565b610bd3836110c8565b610be05760019050610cd1565b6000730d500b1d8e8ef31e21c99d1db9a6444d3adf127073ffffffffffffffffffffffffffffffffffffffff166370a08231856040518263ffffffff1660e01b8152600401610c2f9190612957565b602060405180830381865afa158015610c4c573d6000803e3d6000fd5b505050506040513d601f19601f82011682018060405250810190610c709190612fa7565b9050610c7b836106e9565b81108015610c8e5750610c8d8461125c565b5b15610c9d576001915050610cd1565b6000610ca98585610a4c565b9050600081118015610cba57508181115b15610cca57600192505050610cd1565b6000925050505b92915050565b600860003373ffffffffffffffffffffffffffffffffffffffff1673ffffffffffffffffffffffffffffffffffffffff16815260200190815260200160002060009054906101000a900460ff1680610d6157503373ffffffffffffffffffffffffffffffffffffffff16610d49610e88565b73ffffffffffffffffffffffffffffffffffffffff16145b610d6a57600080fd5b6000848490509050828290508114610db7576040517f08c379a0000000000000000000000000000000000000000000000000000000008152600401610dae90612f0f565b60405180910390fd5b60005b81811015610e23576000868683818110610dd757610dd6612f2f565b5b9050602002016020810190610dec9190612769565b90506000858584818110610e0357610e02612f2f565b5b905060200201359050610e16828261188e565b8260010192505050610dba565b505050505050565b610e336121ba565b610e3d6000612238565b565b6000600760008373ffffffffffffffffffffffffffffffffffffffff1673ffffffffffffffffffffffffffffffffffffffff168152602001908152602001600020549050919050565b60008060009054906101000a900473ffffffffffffffffffffffffffffffffffffffff16905090565b610eb96121ba565b80600860008473ffffffffffffffffffffffffffffffffffffffff1673ffffffffffffffffffffffffffffffffffffffff16815260200190815260200160002060006101000a81548160ff0219169083151502179055505050565b6000600460008373ffffffffffffffffffffffffffffffffffffffff1673ffffffffffffffffffffffffffffffffffffffff168152602001908152602001600020549050919050565b600860003373ffffffffffffffffffffffffffffffffffffffff1673ffffffffffffffffffffffffffffffffffffffff16815260200190815260200160002060009054906101000a900460ff1680610fe757503373ffffffffffffffffffffffffffffffffffffffff16610fcf610e88565b73ffffffffffffffffffffffffffffffffffffffff16145b610ff057600080fd5b6000600460008473ffffffffffffffffffffffffffffffffffffffff1673ffffffffffffffffffffffffffffffffffffffff1681526020019081526020016000205411611072576040517f08c379a000000000000000000000000000000000000000000000000000000000815260040161106990613046565b60405180910390fd5b61107c8282610bb2565b6110bb576040517f08c379a00000000000000000000000000000000000000000000000000000000081526004016110b2906130b2565b60405180910390fd5b6110c4826122fc565b5050565b60007386935f11c86623dec8a25696e1c19a8659cbf95d73ffffffffffffffffffffffffffffffffffffffff1663d7358fea8373290000c417a1de505eb08b7e32b3e8da878d194e6040518363ffffffff1660e01b815260040161112d9291906130d2565b602060405180830381865afa15801561114a573d6000803e3d6000fd5b505050506040513d601f19601f8201168201806040525081019061116e9190613110565b9050919050565b600060016003805490506111899190612f5e565b905090565b606060008383905090508067ffffffffffffffff8111156111b2576111b161313d565b5b6040519080825280602002602001820160405280156111e05781602001602082028036833780820191505090505b50915060005b8181101561125457600085858381811061120357611202612f2f565b5b90506020020160208101906112189190612769565b90506112238161125c565b84838151811061123657611235612f2f565b5b602002602001019015159081151581525050816001019150506111e6565b505092915050565b600080600560008473ffffffffffffffffffffffffffffffffffffffff1673ffffffffffffffffffffffffffffffffffffffff1681526020019081526020016000205490504262278d00826112b19190612cba565b10915050919050565b600860003373ffffffffffffffffffffffffffffffffffffffff1673ffffffffffffffffffffffffffffffffffffffff16815260200190815260200160002060009054906101000a900460ff168061134457503373ffffffffffffffffffffffffffffffffffffffff1661132c610e88565b73ffffffffffffffffffffffffffffffffffffffff16145b61134d57600080fd5b611356826116b3565b611395576040517f08c379a000000000000000000000000000000000000000000000000000000000815260040161138c906131b8565b60405180910390fd5b61139f8282611d22565b5050565b600860003373ffffffffffffffffffffffffffffffffffffffff1673ffffffffffffffffffffffffffffffffffffffff16815260200190815260200160002060009054906101000a900460ff168061142d57503373ffffffffffffffffffffffffffffffffffffffff16611415610e88565b73ffffffffffffffffffffffffffffffffffffffff16145b61143657600080fd5b6000848490509050828290508114611483576040517f08c379a000000000000000000000000000000000000000000000000000000000815260040161147a90612f0f565b60405180910390fd5b60005b818110156114ef5760008686838181106114a3576114a2612f2f565b5b90506020020160208101906114b89190612769565b905060008585848181106114cf576114ce612f2f565b5b9050602002013590506114e28282610f5d565b8260010192505050611486565b505050505050565b6000600460003373ffffffffffffffffffffffffffffffffffffffff1673ffffffffffffffffffffffffffffffffffffffff1681526020019081526020016000205411611579576040517f08c379a00000000000000000000000000000000000000000000000000000000081526004016115709061324a565b60405180910390fd5b611582336122fc565b565b606060008585905090508383905081146115d3576040517f08c379a00000000000000000000000000000000000000000000000000000000081526004016115ca906132b6565b60405180910390fd5b8067ffffffffffffffff8111156115ed576115ec61313d565b5b60405190808252806020026020018201604052801561161b5781602001602082028036833780820191505090505b50915060005b818110156116a957600087878381811061163e5761163d612f2f565b5b90506020020160208101906116539190612769565b9050600086868481811061166a57611669612f2f565b5b90506020020135905061167d8282610a4c565b8584815181106116905761168f612f2f565b5b6020026020010181815250508260010192505050611621565b5050949350505050565b600080600460008473ffffffffffffffffffffffffffffffffffffffff1673ffffffffffffffffffffffffffffffffffffffff16815260200190815260200160002054119050919050565b6000600560008373ffffffffffffffffffffffffffffffffffffffff1673ffffffffffffffffffffffffffffffffffffffff168152602001908152602001600020549050919050565b61174f6121ba565b8060018190555050565b606060008585905090508383905081146117a8576040517f08c379a000000000000000000000000000000000000000000000000000000000815260040161179f906132b6565b60405180910390fd5b8067ffffffffffffffff8111156117c2576117c161313d565b5b6040519080825280602002602001820160405280156117f05781602001602082028036833780820191505090505b50915060005b8181101561188457600087878381811061181357611812612f2f565b5b90506020020160208101906118289190612769565b9050600086868481811061183f5761183e612f2f565b5b9050602002013590506118528282610bb2565b85848151811061186557611864612f2f565b5b60200260200101901515908115158152505082600101925050506117f6565b5050949350505050565b600860003373ffffffffffffffffffffffffffffffffffffffff1673ffffffffffffffffffffffffffffffffffffffff16815260200190815260200160002060009054906101000a900460ff168061191857503373ffffffffffffffffffffffffffffffffffffffff16611900610e88565b73ffffffffffffffffffffffffffffffffffffffff16145b61192157600080fd5b61192a826116b3565b611969576040517f08c379a000000000000000000000000000000000000000000000000000000000815260040161196090613322565b60405180910390fd5b60006119758383610a4c565b9050600081116119ba576040517f08c379a00000000000000000000000000000000000000000000000000000000081526004016119b19061338e565b60405180910390fd5b6000730d500b1d8e8ef31e21c99d1db9a6444d3adf127073ffffffffffffffffffffffffffffffffffffffff166323b872dd8573dc5b665e8135023f80bf4dbf85f65086c7ac3bb1856040518463ffffffff1660e01b8152600401611a21939291906133ae565b6020604051808303816000875af1158015611a40573d6000803e3d6000fd5b505050506040513d601f19601f82011682018060405250810190611a649190613110565b905080611aa6576040517f08c379a0000000000000000000000000000000000000000000000000000000008152600401611a9d90613431565b60405180910390fd5b611aaf836106e9565b600660008673ffffffffffffffffffffffffffffffffffffffff1673ffffffffffffffffffffffffffffffffffffffff1681526020019081526020016000208190555082600760008673ffffffffffffffffffffffffffffffffffffffff1673ffffffffffffffffffffffffffffffffffffffff168152602001908152602001600020819055507f8baef664d3921cbe607ed98005b7a49f8959898033fe87ec00927696cfccca57848385604051611b6993929190613451565b60405180910390a150505050565b611b7f6121ba565b600073ffffffffffffffffffffffffffffffffffffffff168173ffffffffffffffffffffffffffffffffffffffff1603611bee576040517f08c379a0000000000000000000000000000000000000000000000000000000008152600401611be5906134fa565b60405180910390fd5b611bf781612238565b50565b606060008267ffffffffffffffff811115611c1857611c1761313d565b5b604051908082528060200260200182016040528015611c465781602001602082028036833780820191505090505b50905060005b83811015611d175760008186611c629190612cba565b9050600380549050811115611c775750611d17565b60038181548110611c8b57611c8a612f2f565b5b9060005260206000200160009054906101000a900473ffffffffffffffffffffffffffffffffffffffff16838381518110611cc957611cc8612f2f565b5b602002602001019073ffffffffffffffffffffffffffffffffffffffff16908173ffffffffffffffffffffffffffffffffffffffff1681525050508080611d0f9061351a565b915050611c4c565b508091505092915050565b611d2b8261125c565b611d6a576040517f08c379a0000000000000000000000000000000000000000000000000000000008152600401611d61906135ae565b60405180910390fd5b60008111611dad576040517f08c379a0000000000000000000000000000000000000000000000000000000008152600401611da49061361a565b60405180910390fd5b6000611db8826106e9565b90506000730d500b1d8e8ef31e21c99d1db9a6444d3adf127073ffffffffffffffffffffffffffffffffffffffff166370a08231856040518263ffffffff1660e01b8152600401611e099190612957565b602060405180830381865afa158015611e26573d6000803e3d6000fd5b505050506040513d601f19601f82011682018060405250810190611e4a9190612fa7565b905081811015611e8f576040517f08c379a0000000000000000000000000000000000000000000000000000000008152600401611e8690613686565b60405180910390fd5b6000730d500b1d8e8ef31e21c99d1db9a6444d3adf127073ffffffffffffffffffffffffffffffffffffffff166323b872dd8673dc5b665e8135023f80bf4dbf85f65086c7ac3bb1866040518463ffffffff1660e01b8152600401611ef6939291906133ae565b6020604051808303816000875af1158015611f15573d6000803e3d6000fd5b505050506040513d601f19601f82011682018060405250810190611f399190613110565b905080611f7b576040517f08c379a0000000000000000000000000000000000000000000000000000000008152600401611f7290613431565b60405180910390fd5b42600560008773ffffffffffffffffffffffffffffffffffffffff1673ffffffffffffffffffffffffffffffffffffffff1681526020019081526020016000208190555082600660008773ffffffffffffffffffffffffffffffffffffffff1673ffffffffffffffffffffffffffffffffffffffff1681526020019081526020016000208190555083600760008773ffffffffffffffffffffffffffffffffffffffff1673ffffffffffffffffffffffffffffffffffffffff168152602001908152602001600020819055507f32c8827c44bf4e71963135be394d95e34ec7302da6f5d8fca5439557863a33f485848660405161207a93929190613451565b60405180910390a15050505050565b6000600460008373ffffffffffffffffffffffffffffffffffffffff1673ffffffffffffffffffffffffffffffffffffffff168152602001908152602001600020541461210b576040517f08c379a0000000000000000000000000000000000000000000000000000000008152600401612102906136f2565b60405180910390fd5b600380549050600460008373ffffffffffffffffffffffffffffffffffffffff1673ffffffffffffffffffffffffffffffffffffffff168152602001908152602001600020819055506003819080600181540180825580915050600190039060005260206000200160009091909190916101000a81548173ffffffffffffffffffffffffffffffffffffffff021916908373ffffffffffffffffffffffffffffffffffffffff16021790555050565b6121c261258c565b73ffffffffffffffffffffffffffffffffffffffff166121e0610e88565b73ffffffffffffffffffffffffffffffffffffffff1614612236576040517f08c379a000000000000000000000000000000000000000000000000000000000815260040161222d9061375e565b60405180910390fd5b565b60008060009054906101000a900473ffffffffffffffffffffffffffffffffffffffff169050816000806101000a81548173ffffffffffffffffffffffffffffffffffffffff021916908373ffffffffffffffffffffffffffffffffffffffff1602179055508173ffffffffffffffffffffffffffffffffffffffff168173ffffffffffffffffffffffffffffffffffffffff167f8be0079c531659141344cd1fd0a4f28419497f9722a3daafe3b4186f6b6457e060405160405180910390a35050565b6000600460008373ffffffffffffffffffffffffffffffffffffffff1673ffffffffffffffffffffffffffffffffffffffff168152602001908152602001600020541161237e576040517f08c379a0000000000000000000000000000000000000000000000000000000008152600401612375906137ca565b60405180910390fd5b6000600460008373ffffffffffffffffffffffffffffffffffffffff1673ffffffffffffffffffffffffffffffffffffffff168152602001908152602001600020549050600060016003805490506123d69190612f5e565b90506000600382815481106123ee576123ed612f2f565b5b9060005260206000200160009054906101000a900473ffffffffffffffffffffffffffffffffffffffff1690506003828154811061242f5761242e612f2f565b5b9060005260206000200160009054906101000a900473ffffffffffffffffffffffffffffffffffffffff166003848154811061246e5761246d612f2f565b5b9060005260206000200160006101000a81548173ffffffffffffffffffffffffffffffffffffffff021916908373ffffffffffffffffffffffffffffffffffffffff16021790555082600460008373ffffffffffffffffffffffffffffffffffffffff1673ffffffffffffffffffffffffffffffffffffffff16815260200190815260200160002081905550600380548061250c5761250b6137ea565b5b6001900381819060005260206000200160006101000a81549073ffffffffffffffffffffffffffffffffffffffff021916905590556000600460008673ffffffffffffffffffffffffffffffffffffffff1673ffffffffffffffffffffffffffffffffffffffff1681526020019081526020016000208190555050505050565b600033905090565b600081519050919050565b600082825260208201905092915050565b6000819050602082019050919050565b600073ffffffffffffffffffffffffffffffffffffffff82169050919050565b60006125eb826125c0565b9050919050565b6125fb816125e0565b82525050565b600061260d83836125f2565b60208301905092915050565b6000602082019050919050565b600061263182612594565b61263b818561259f565b9350612646836125b0565b8060005b8381101561267757815161265e8882612601565b975061266983612619565b92505060018101905061264a565b5085935050505092915050565b6000602082019050818103600083015261269e8184612626565b905092915050565b600080fd5b600080fd5b6000819050919050565b6126c3816126b0565b81146126ce57600080fd5b50565b6000813590506126e0816126ba565b92915050565b6000602082840312156126fc576126fb6126a6565b5b600061270a848285016126d1565b91505092915050565b61271c816126b0565b82525050565b60006020820190506127376000830184612713565b92915050565b612746816125e0565b811461275157600080fd5b50565b6000813590506127638161273d565b92915050565b60006020828403121561277f5761277e6126a6565b5b600061278d84828501612754565b91505092915050565b60008115159050919050565b6127ab81612796565b82525050565b60006020820190506127c660008301846127a2565b92915050565b600080fd5b600080fd5b600080fd5b60008083601f8401126127f1576127f06127cc565b5b8235905067ffffffffffffffff81111561280e5761280d6127d1565b5b60208301915083602082028301111561282a576128296127d6565b5b9250929050565b60008083601f840112612847576128466127cc565b5b8235905067ffffffffffffffff811115612864576128636127d1565b5b6020830191508360208202830111156128805761287f6127d6565b5b9250929050565b600080600080604085870312156128a1576128a06126a6565b5b600085013567ffffffffffffffff8111156128bf576128be6126ab565b5b6128cb878288016127db565b9450945050602085013567ffffffffffffffff8111156128ee576128ed6126ab565b5b6128fa87828801612831565b925092505092959194509250565b6000806040838503121561291f5761291e6126a6565b5b600061292d85828601612754565b925050602061293e858286016126d1565b9150509250929050565b612951816125e0565b82525050565b600060208201905061296c6000830184612948565b92915050565b61297b81612796565b811461298657600080fd5b50565b60008135905061299881612972565b92915050565b600080604083850312156129b5576129b46126a6565b5b60006129c385828601612754565b92505060206129d485828601612989565b9150509250929050565b600080602083850312156129f5576129f46126a6565b5b600083013567ffffffffffffffff811115612a1357612a126126ab565b5b612a1f858286016127db565b92509250509250929050565b600081519050919050565b600082825260208201905092915050565b6000819050602082019050919050565b612a6081612796565b82525050565b6000612a728383612a57565b60208301905092915050565b6000602082019050919050565b6000612a9682612a2b565b612aa08185612a36565b9350612aab83612a47565b8060005b83811015612adc578151612ac38882612a66565b9750612ace83612a7e565b925050600181019050612aaf565b5085935050505092915050565b60006020820190508181036000830152612b038184612a8b565b905092915050565b600081519050919050565b600082825260208201905092915050565b6000819050602082019050919050565b612b40816126b0565b82525050565b6000612b528383612b37565b60208301905092915050565b6000602082019050919050565b6000612b7682612b0b565b612b808185612b16565b9350612b8b83612b27565b8060005b83811015612bbc578151612ba38882612b46565b9750612bae83612b5e565b925050600181019050612b8f565b5085935050505092915050565b60006020820190508181036000830152612be38184612b6b565b905092915050565b60008060408385031215612c0257612c016126a6565b5b6000612c10858286016126d1565b9250506020612c21858286016126d1565b9150509250929050565b7f4e487b7100000000000000000000000000000000000000000000000000000000600052601260045260246000fd5b7f4e487b7100000000000000000000000000000000000000000000000000000000600052601160045260246000fd5b6000612c94826126b0565b9150612c9f836126b0565b925082612caf57612cae612c2b565b5b828204905092915050565b6000612cc5826126b0565b9150612cd0836126b0565b9250828201905080821115612ce857612ce7612c5a565b5b92915050565b6000612cf9826126b0565b9150612d04836126b0565b9250817fffffffffffffffffffffffffffffffffffffffffffffffffffffffffffffffff0483118215151615612d3d57612d3c612c5a565b5b828202905092915050565b600082825260208201905092915050565b7f46656565723a20416c7265616479207573657200000000000000000000000000600082015250565b6000612d8f601383612d48565b9150612d9a82612d59565b602082019050919050565b60006020820190508181036000830152612dbe81612d82565b9050919050565b7f46656565723a203120676f74636869206d696e00000000000000000000000000600082015250565b6000612dfb601383612d48565b9150612e0682612dc5565b602082019050919050565b60006020820190508181036000830152612e2a81612dee565b9050919050565b7f46656565723a204861736e277420736574207065744f70657261746f72466f7260008201527f416c6c0000000000000000000000000000000000000000000000000000000000602082015250565b6000612e8d602383612d48565b9150612e9882612e31565b604082019050919050565b60006020820190508181036000830152612ebc81612e80565b9050919050565b7f46656565723a2061727261792073697a65206e6f7420657175616c0000000000600082015250565b6000612ef9601b83612d48565b9150612f0482612ec3565b602082019050919050565b60006020820190508181036000830152612f2881612eec565b9050919050565b7f4e487b7100000000000000000000000000000000000000000000000000000000600052603260045260246000fd5b6000612f69826126b0565b9150612f74836126b0565b9250828203905081811115612f8c57612f8b612c5a565b5b92915050565b600081519050612fa1816126ba565b92915050565b600060208284031215612fbd57612fbc6126a6565b5b6000612fcb84828501612f92565b91505092915050565b7f46656565723a2043616e27742072656d6f76652c206e6f74207265676973746560008201527f7265642061732075736572000000000000000000000000000000000000000000602082015250565b6000613030602b83612d48565b915061303b82612fd4565b604082019050919050565b6000602082019050818103600083015261305f81613023565b9050919050565b7f46656565723a2053686f756c646e27742062652072656d6f7665640000000000600082015250565b600061309c601b83612d48565b91506130a782613066565b602082019050919050565b600060208201905081810360008301526130cb8161308f565b9050919050565b60006040820190506130e76000830185612948565b6130f46020830184612948565b9392505050565b60008151905061310a81612972565b92915050565b600060208284031215613126576131256126a6565b5b6000613134848285016130fb565b91505092915050565b7f4e487b7100000000000000000000000000000000000000000000000000000000600052604160045260246000fd5b7f46656565723a2043616e277420636861726765206e6f6e2d7573657273000000600082015250565b60006131a2601d83612d48565b91506131ad8261316c565b602082019050919050565b600060208201905081810360008301526131d181613195565b9050919050565b7f46656565723a2043616e2774206c656176652c206e6f7420726567697374657260008201527f6564206173207573657200000000000000000000000000000000000000000000602082015250565b6000613234602a83612d48565b915061323f826131d8565b604082019050919050565b6000602082019050818103600083015261326381613227565b9050919050565b7f46656565723a2041727261792073697a65206e6f7420657175616c0000000000600082015250565b60006132a0601b83612d48565b91506132ab8261326a565b602082019050919050565b600060208201905081810360008301526132cf81613293565b9050919050565b7f46656565723a2043616e277420726567756c617465206e6f6e2d757365727300600082015250565b600061330c601f83612d48565b9150613317826132d6565b602082019050919050565b6000602082019050818103600083015261333b816132ff565b9050919050565b7f46656565723a204e6f20726567756c6174696f6e206e65656465640000000000600082015250565b6000613378601b83612d48565b915061338382613342565b602082019050919050565b600060208201905081810360008301526133a78161336b565b9050919050565b60006060820190506133c36000830186612948565b6133d06020830185612948565b6133dd6040830184612713565b949350505050565b7f46656565723a207472616e7366657246726f6d206661696c6564000000000000600082015250565b600061341b601a83612d48565b9150613426826133e5565b602082019050919050565b6000602082019050818103600083015261344a8161340e565b9050919050565b60006060820190506134666000830186612948565b6134736020830185612713565b6134806040830184612713565b949350505050565b7f4f776e61626c653a206e6577206f776e657220697320746865207a65726f206160008201527f6464726573730000000000000000000000000000000000000000000000000000602082015250565b60006134e4602683612d48565b91506134ef82613488565b604082019050919050565b60006020820190508181036000830152613513816134d7565b9050919050565b6000613525826126b0565b91507fffffffffffffffffffffffffffffffffffffffffffffffffffffffffffffffff820361355757613556612c5a565b5b600182019050919050565b7f46656565723a2032736f6f6e3270617900000000000000000000000000000000600082015250565b6000613598601083612d48565b91506135a382613562565b602082019050919050565b600060208201905081810360008301526135c78161358b565b9050919050565b7f46656565723a20446f65736e2774206f776e206120676f746368690000000000600082015250565b6000613604601b83612d48565b915061360f826135ce565b602082019050919050565b60006020820190508181036000830152613633816135f7565b9050919050565b7f46656565723a204e6f7420656e6f75676820576d6174696320746f2070617900600082015250565b6000613670601f83612d48565b915061367b8261363a565b602082019050919050565b6000602082019050818103600083015261369f81613663565b9050919050565b7f46656565723a207573657220616c726561647920616464656400000000000000600082015250565b60006136dc601983612d48565b91506136e7826136a6565b602082019050919050565b6000602082019050818103600083015261370b816136cf565b9050919050565b7f4f776e61626c653a2063616c6c6572206973206e6f7420746865206f776e6572600082015250565b6000613748602083612d48565b915061375382613712565b602082019050919050565b600060208201905081810360008301526137778161373b565b9050919050565b7f46656565723a207573657220616c72656164792072656d6f7665640000000000600082015250565b60006137b4601b83612d48565b91506137bf8261377e565b602082019050919050565b600060208201905081810360008301526137e3816137a7565b9050919050565b7f4e487b7100000000000000000000000000000000000000000000000000000000600052603160045260246000fdfea2646970667358221220cc5b887e588a80836b398848bcec299fa07ff30b0e7a305a262449c201b2304164736f6c63430008100033",
  "linkReferences": {},
  "deployedLinkReferences": {}
}